{
  "address": "0x2E3BCfbCcaEAF91B316F448D2DeE888fB439862B",
  "abi": [
    {
      "inputs": [
        {
          "internalType": "address",
          "name": "_owner",
          "type": "address"
        }
      ],
      "stateMutability": "nonpayable",
      "type": "constructor"
    },
    {
      "anonymous": false,
      "inputs": [
        {
          "indexed": true,
          "internalType": "address",
          "name": "user",
          "type": "address"
        },
        {
          "indexed": false,
          "internalType": "string",
          "name": "newGreeting",
          "type": "string"
        },
        {
          "indexed": false,
          "internalType": "uint256",
          "name": "timestamp",
          "type": "uint256"
        }
      ],
      "name": "GreetingChanged",
      "type": "event"
    },
    {
      "inputs": [],
      "name": "getGreeting",
      "outputs": [
        {
          "internalType": "string",
          "name": "",
          "type": "string"
        }
      ],
      "stateMutability": "view",
      "type": "function"
    },
    {
      "inputs": [],
      "name": "getTotalGreetings",
      "outputs": [
        {
          "internalType": "uint256",
          "name": "",
          "type": "uint256"
        }
      ],
      "stateMutability": "view",
      "type": "function"
    },
    {
      "inputs": [
        {
          "internalType": "address",
          "name": "_user",
          "type": "address"
        }
      ],
      "name": "getUserGreetingCount",
      "outputs": [
        {
          "internalType": "uint256",
          "name": "",
          "type": "uint256"
        }
      ],
      "stateMutability": "view",
      "type": "function"
    },
    {
      "inputs": [],
      "name": "greeting",
      "outputs": [
        {
          "internalType": "string",
          "name": "",
          "type": "string"
        }
      ],
      "stateMutability": "view",
      "type": "function"
    },
    {
      "inputs": [],
      "name": "owner",
      "outputs": [
        {
          "internalType": "address",
          "name": "",
          "type": "address"
        }
      ],
      "stateMutability": "view",
      "type": "function"
    },
    {
      "inputs": [
        {
          "internalType": "string",
          "name": "_newGreeting",
          "type": "string"
        }
      ],
      "name": "setGreeting",
      "outputs": [],
      "stateMutability": "nonpayable",
      "type": "function"
    },
    {
      "inputs": [],
      "name": "totalGreetings",
      "outputs": [
        {
          "internalType": "uint256",
          "name": "",
          "type": "uint256"
        }
      ],
      "stateMutability": "view",
      "type": "function"
    },
    {
      "inputs": [
        {
          "internalType": "address",
          "name": "",
          "type": "address"
        }
      ],
      "name": "userGreetingCount",
      "outputs": [
        {
          "internalType": "uint256",
          "name": "",
          "type": "uint256"
        }
      ],
      "stateMutability": "view",
      "type": "function"
    }
  ],
  "transactionHash": "0x04cb6efa58a835ab52d3a3d3e7a3601bc78544c4c42a6ada4f70809587c57d63",
  "args": [
    "0x0d0fc89158B97C2f0B9185aE5C817196aaab12be"
  ],
  "numDeployments": 1,
  "solcInputHash": "413b7409a9f3940f9f949e1c4253be20",
  "bytecode": "0x60e0604052601060a09081526f48656c6c6f2c20536861726465756d2160801b60c052600090620000319082620001eb565b5060006001553480156200004457600080fd5b5060405162000aab38038062000aab8339810160408190526200006791620002b7565b6001600160a01b0381166080526040805180820190915260208082527f48656c6c6f576f726c6420636f6e7472616374206465706c6f7965642062793a90820152620000b49082620000bb565b506200034b565b620001088282604051602401620000d4929190620002e9565b60408051601f198184030181529190526020810180516001600160e01b0390811663319af33360e01b179091526200010c16565b5050565b62000122816200012560201b620003361760201c565b50565b60006a636f6e736f6c652e6c6f679050600080835160208501845afa505050565b634e487b7160e01b600052604160045260246000fd5b600181811c908216806200017157607f821691505b6020821081036200019257634e487b7160e01b600052602260045260246000fd5b50919050565b601f821115620001e657600081815260208120601f850160051c81016020861015620001c15750805b601f850160051c820191505b81811015620001e257828155600101620001cd565b5050505b505050565b81516001600160401b0381111562000207576200020762000146565b6200021f816200021884546200015c565b8462000198565b602080601f8311600181146200025757600084156200023e5750858301515b600019600386901b1c1916600185901b178555620001e2565b600085815260208120601f198616915b82811015620002885788860151825594840194600190910190840162000267565b5085821015620002a75787850151600019600388901b60f8161c191681555b5050505050600190811b01905550565b600060208284031215620002ca57600080fd5b81516001600160a01b0381168114620002e257600080fd5b9392505050565b604081526000835180604084015260005b81811015620003195760208187018101516060868401015201620002fa565b50600060608285018101919091526001600160a01b03949094166020840152601f01601f191690910190910192915050565b60805161074562000366600039600060f601526107456000f3fe608060405234801561001057600080fd5b50600436106100885760003560e01c8063a41368621161005b578063a413686214610130578063b528d8f214610145578063ef690cc01461014e578063fe50cc721461016357600080fd5b8063171df77a1461008d57806331d49889146100c95780638490baec146100e95780638da5cb5b146100f1575b600080fd5b6100b661009b3660046103b9565b6001600160a01b031660009081526002602052604090205490565b6040519081526020015b60405180910390f35b6100b66100d73660046103b9565b60026020526000908152604090205481565b6001546100b6565b6101187f000000000000000000000000000000000000000000000000000000000000000081565b6040516001600160a01b0390911681526020016100c0565b61014361013e3660046103ff565b61016b565b005b6100b660015481565b610156610216565b6040516100c091906104f6565b6101566102a4565b61018e6040518060600160405280602181526020016106ef602191398233610357565b600061019a8282610591565b5060018060008282546101ad9190610651565b90915550503360009081526002602052604081208054600192906101d2908490610651565b909155505060405133907f2e85891de82c03ee16ba9b73f482a108ce7286a59a8bfebc9b26e6e86b61582c9061020b9084904290610678565b60405180910390a250565b6000805461022390610509565b80601f016020809104026020016040519081016040528092919081815260200182805461024f90610509565b801561029c5780601f106102715761010080835404028352916020019161029c565b820191906000526020600020905b81548152906001019060200180831161027f57829003601f168201915b505050505081565b6060600080546102b390610509565b80601f01602080910402602001604051908101604052809291908181526020018280546102df90610509565b801561032c5780601f106103015761010080835404028352916020019161032c565b820191906000526020600020905b81548152906001019060200180831161030f57829003601f168201915b5050505050905090565b60006a636f6e736f6c652e6c6f679050600080835160208501845afa505050565b61039e83838360405160240161036f9392919061069a565b60408051601f198184030181529190526020810180516001600160e01b03166395ed019560e01b1790526103a3565b505050565b6103ac81610336565b50565b6103b76106d8565b565b6000602082840312156103cb57600080fd5b81356001600160a01b03811681146103e257600080fd5b9392505050565b634e487b7160e01b600052604160045260246000fd5b60006020828403121561041157600080fd5b813567ffffffffffffffff8082111561042957600080fd5b818401915084601f83011261043d57600080fd5b81358181111561044f5761044f6103e9565b604051601f8201601f19908116603f01168101908382118183101715610477576104776103e9565b8160405282815287602084870101111561049057600080fd5b826020860160208301376000928101602001929092525095945050505050565b6000815180845260005b818110156104d6576020818501810151868301820152016104ba565b506000602082860101526020601f19601f83011685010191505092915050565b6020815260006103e260208301846104b0565b600181811c9082168061051d57607f821691505b60208210810361053d57634e487b7160e01b600052602260045260246000fd5b50919050565b601f82111561039e57600081815260208120601f850160051c8101602086101561056a5750805b601f850160051c820191505b8181101561058957828155600101610576565b505050505050565b815167ffffffffffffffff8111156105ab576105ab6103e9565b6105bf816105b98454610509565b84610543565b602080601f8311600181146105f457600084156105dc5750858301515b600019600386901b1c1916600185901b178555610589565b600085815260208120601f198616915b8281101561062357888601518255948401946001909101908401610604565b50858210156106415787850151600019600388901b60f8161c191681555b5050505050600190811b01905550565b8082018082111561067257634e487b7160e01b600052601160045260246000fd5b92915050565b60408152600061068b60408301856104b0565b90508260208301529392505050565b6060815260006106ad60608301866104b0565b82810360208401526106bf81866104b0565b91505060018060a01b0383166040830152949350505050565b634e487b7160e01b600052605160045260246000fdfe53657474696e67206e6577206772656574696e6720272573272066726f6d202573a26469706673582212206821086a80544a1e5f0f7162c5c604b5fee649b4b7030e8118de5893504de7f464736f6c63430008140033",
  "devdoc": {
    "author": "Scaffold-Shard",
    "kind": "dev",
    "methods": {
      "getGreeting()": {
        "returns": {
          "_0": "The current greeting message"
        }
      },
      "getTotalGreetings()": {
        "returns": {
          "_0": "The total count of greetings"
        }
      },
      "getUserGreetingCount(address)": {
        "params": {
          "_user": "- The address to check"
        },
        "returns": {
          "_0": "The number of times the address has set a greeting"
        }
      },
      "setGreeting(string)": {
        "params": {
          "_newGreeting": "- The new greeting message to set"
        }
      }
    },
    "version": 1
  },
  "userdoc": {
    "kind": "user",
    "methods": {
      "getGreeting()": {
        "notice": "Function to read the current greeting"
      },
      "getTotalGreetings()": {
        "notice": "Function to get the total number of greetings set"
      },
      "getUserGreetingCount(address)": {
        "notice": "Function to get how many times a specific address has set a greeting"
      },
      "setGreeting(string)": {
        "notice": "Function that allows anyone to change the greeting message"
      }
    },
    "notice": "A simple \"Hello World\" smart contract for learning Shardeum development This contract allows anyone to set and read a greeting message",
    "version": 1
  },
  "storageLayout": {
    "storage": [
      {
        "astId": 8,
        "contract": "contracts/HelloWorld.sol:HelloWorld",
        "label": "greeting",
        "offset": 0,
        "slot": "0",
        "type": "t_string_storage"
      },
      {
        "astId": 11,
        "contract": "contracts/HelloWorld.sol:HelloWorld",
        "label": "totalGreetings",
        "offset": 0,
        "slot": "1",
        "type": "t_uint256"
      },
      {
        "astId": 15,
        "contract": "contracts/HelloWorld.sol:HelloWorld",
        "label": "userGreetingCount",
        "offset": 0,
        "slot": "2",
        "type": "t_mapping(t_address,t_uint256)"
      }
    ],
    "types": {
      "t_address": {
        "encoding": "inplace",
        "label": "address",
        "numberOfBytes": "20"
      },
      "t_mapping(t_address,t_uint256)": {
        "encoding": "mapping",
        "key": "t_address",
        "label": "mapping(address => uint256)",
        "numberOfBytes": "32",
        "value": "t_uint256"
      },
      "t_string_storage": {
        "encoding": "bytes",
        "label": "string",
        "numberOfBytes": "32"
      },
      "t_uint256": {
        "encoding": "inplace",
        "label": "uint256",
        "numberOfBytes": "32"
      }
    }
  }
}